{
  "_format": "hh-sol-artifact-1",
  "contractName": "Auction",
  "sourceName": "src/contracts/Auction.sol",
  "abi": [
    {
      "inputs": [
        {
          "internalType": "uint256",
          "name": "_royaltyFee",
          "type": "uint256"
        }
      ],
      "stateMutability": "nonpayable",
      "type": "constructor"
    },
    {
      "anonymous": false,
      "inputs": [
        {
          "indexed": true,
          "internalType": "address",
          "name": "owner",
          "type": "address"
        },
        {
          "indexed": true,
          "internalType": "address",
          "name": "approved",
          "type": "address"
        },
        {
          "indexed": true,
          "internalType": "uint256",
          "name": "tokenId",
          "type": "uint256"
        }
      ],
      "name": "Approval",
      "type": "event"
    },
    {
      "anonymous": false,
      "inputs": [
        {
          "indexed": true,
          "internalType": "address",
          "name": "owner",
          "type": "address"
        },
        {
          "indexed": true,
          "internalType": "address",
          "name": "operator",
          "type": "address"
        },
        {
          "indexed": false,
          "internalType": "bool",
          "name": "approved",
          "type": "bool"
        }
      ],
      "name": "ApprovalForAll",
      "type": "event"
    },
    {
      "anonymous": false,
      "inputs": [
        {
          "indexed": true,
          "internalType": "uint256",
          "name": "tokenId",
          "type": "uint256"
        },
        {
          "indexed": false,
          "internalType": "address",
          "name": "seller",
          "type": "address"
        },
        {
          "indexed": false,
          "internalType": "address",
          "name": "owner",
          "type": "address"
        },
        {
          "indexed": false,
          "internalType": "uint256",
          "name": "price",
          "type": "uint256"
        },
        {
          "indexed": false,
          "internalType": "bool",
          "name": "sold",
          "type": "bool"
        }
      ],
      "name": "AuctionItemCreated",
      "type": "event"
    },
    {
      "anonymous": false,
      "inputs": [
        {
          "indexed": false,
          "internalType": "uint256",
          "name": "_fromTokenId",
          "type": "uint256"
        },
        {
          "indexed": false,
          "internalType": "uint256",
          "name": "_toTokenId",
          "type": "uint256"
        }
      ],
      "name": "BatchMetadataUpdate",
      "type": "event"
    },
    {
      "anonymous": false,
      "inputs": [
        {
          "indexed": false,
          "internalType": "uint256",
          "name": "_tokenId",
          "type": "uint256"
        }
      ],
      "name": "MetadataUpdate",
      "type": "event"
    },
    {
      "anonymous": false,
      "inputs": [
        {
          "indexed": true,
          "internalType": "address",
          "name": "from",
          "type": "address"
        },
        {
          "indexed": true,
          "internalType": "address",
          "name": "to",
          "type": "address"
        },
        {
          "indexed": true,
          "internalType": "uint256",
          "name": "tokenId",
          "type": "uint256"
        }
      ],
      "name": "Transfer",
      "type": "event"
    },
    {
      "inputs": [
        {
          "internalType": "address",
          "name": "to",
          "type": "address"
        },
        {
          "internalType": "uint256",
          "name": "tokenId",
          "type": "uint256"
        }
      ],
      "name": "approve",
      "outputs": [],
      "stateMutability": "nonpayable",
      "type": "function"
    },
    {
      "inputs": [
        {
          "internalType": "address",
          "name": "owner",
          "type": "address"
        }
      ],
      "name": "balanceOf",
      "outputs": [
        {
          "internalType": "uint256",
          "name": "",
          "type": "uint256"
        }
      ],
      "stateMutability": "view",
      "type": "function"
    },
    {
      "inputs": [
        {
          "internalType": "uint256",
          "name": "tokenId",
          "type": "uint256"
        }
      ],
      "name": "buyAuctionedItem",
      "outputs": [],
      "stateMutability": "payable",
      "type": "function"
    },
    {
      "inputs": [
        {
          "internalType": "uint256",
          "name": "tokenId",
          "type": "uint256"
        },
        {
          "internalType": "uint256",
          "name": "price",
          "type": "uint256"
        }
      ],
      "name": "changePrice",
      "outputs": [],
      "stateMutability": "nonpayable",
      "type": "function"
    },
    {
      "inputs": [
        {
          "internalType": "uint256",
          "name": "tokenId",
          "type": "uint256"
        },
        {
          "internalType": "uint256",
          "name": "bid",
          "type": "uint256"
        }
      ],
      "name": "claimPrize",
      "outputs": [],
      "stateMutability": "nonpayable",
      "type": "function"
    },
    {
      "inputs": [
        {
          "internalType": "string",
          "name": "name",
          "type": "string"
        },
        {
          "internalType": "string",
          "name": "description",
          "type": "string"
        },
        {
          "internalType": "string",
          "name": "image",
          "type": "string"
        },
        {
          "internalType": "string",
          "name": "tokenURI",
          "type": "string"
        },
        {
          "internalType": "uint256",
          "name": "price",
          "type": "uint256"
        }
      ],
      "name": "createAuction",
      "outputs": [],
      "stateMutability": "payable",
      "type": "function"
    },
    {
      "inputs": [],
      "name": "getAllAuctions",
      "outputs": [
        {
          "components": [
            {
              "internalType": "string",
              "name": "name",
              "type": "string"
            },
            {
              "internalType": "string",
              "name": "description",
              "type": "string"
            },
            {
              "internalType": "string",
              "name": "image",
              "type": "string"
            },
            {
              "internalType": "uint256",
              "name": "tokenId",
              "type": "uint256"
            },
            {
              "internalType": "address",
              "name": "seller",
              "type": "address"
            },
            {
              "internalType": "address",
              "name": "owner",
              "type": "address"
            },
            {
              "internalType": "address",
              "name": "winner",
              "type": "address"
            },
            {
              "internalType": "uint256",
              "name": "price",
              "type": "uint256"
            },
            {
              "internalType": "bool",
              "name": "sold",
              "type": "bool"
            },
            {
              "internalType": "bool",
              "name": "live",
              "type": "bool"
            },
            {
              "internalType": "bool",
              "name": "biddable",
              "type": "bool"
            },
            {
              "internalType": "uint256",
              "name": "bids",
              "type": "uint256"
            },
            {
              "internalType": "uint256",
              "name": "duration",
              "type": "uint256"
            }
          ],
          "internalType": "struct Auction.AuctionStruct[]",
          "name": "Auctions",
          "type": "tuple[]"
        }
      ],
      "stateMutability": "view",
      "type": "function"
    },
    {
      "inputs": [
        {
          "internalType": "uint256",
          "name": "tokenId",
          "type": "uint256"
        }
      ],
      "name": "getApproved",
      "outputs": [
        {
          "internalType": "address",
          "name": "",
          "type": "address"
        }
      ],
      "stateMutability": "view",
      "type": "function"
    },
    {
      "inputs": [
        {
          "internalType": "uint256",
          "name": "id",
          "type": "uint256"
        }
      ],
      "name": "getAuction",
      "outputs": [
        {
          "components": [
            {
              "internalType": "string",
              "name": "name",
              "type": "string"
            },
            {
              "internalType": "string",
              "name": "description",
              "type": "string"
            },
            {
              "internalType": "string",
              "name": "image",
              "type": "string"
            },
            {
              "internalType": "uint256",
              "name": "tokenId",
              "type": "uint256"
            },
            {
              "internalType": "address",
              "name": "seller",
              "type": "address"
            },
            {
              "internalType": "address",
              "name": "owner",
              "type": "address"
            },
            {
              "internalType": "address",
              "name": "winner",
              "type": "address"
            },
            {
              "internalType": "uint256",
              "name": "price",
              "type": "uint256"
            },
            {
              "internalType": "bool",
              "name": "sold",
              "type": "bool"
            },
            {
              "internalType": "bool",
              "name": "live",
              "type": "bool"
            },
            {
              "internalType": "bool",
              "name": "biddable",
              "type": "bool"
            },
            {
              "internalType": "uint256",
              "name": "bids",
              "type": "uint256"
            },
            {
              "internalType": "uint256",
              "name": "duration",
              "type": "uint256"
            }
          ],
          "internalType": "struct Auction.AuctionStruct",
          "name": "",
          "type": "tuple"
        }
      ],
      "stateMutability": "view",
      "type": "function"
    },
    {
      "inputs": [
        {
          "internalType": "uint256",
          "name": "tokenId",
          "type": "uint256"
        }
      ],
      "name": "getBidders",
      "outputs": [
        {
          "components": [
            {
              "internalType": "address",
              "name": "bidder",
              "type": "address"
            },
            {
              "internalType": "uint256",
              "name": "price",
              "type": "uint256"
            },
            {
              "internalType": "uint256",
              "name": "timestamp",
              "type": "uint256"
            },
            {
              "internalType": "bool",
              "name": "refunded",
              "type": "bool"
            },
            {
              "internalType": "bool",
              "name": "won",
              "type": "bool"
            }
          ],
          "internalType": "struct Auction.BidderStruct[]",
          "name": "",
          "type": "tuple[]"
        }
      ],
      "stateMutability": "view",
      "type": "function"
    },
    {
      "inputs": [],
      "name": "getListingPrice",
      "outputs": [
        {
          "internalType": "uint256",
          "name": "",
          "type": "uint256"
        }
      ],
      "stateMutability": "view",
      "type": "function"
    },
    {
      "inputs": [],
      "name": "getLiveAuctions",
      "outputs": [
        {
          "components": [
            {
              "internalType": "string",
              "name": "name",
              "type": "string"
            },
            {
              "internalType": "string",
              "name": "description",
              "type": "string"
            },
            {
              "internalType": "string",
              "name": "image",
              "type": "string"
            },
            {
              "internalType": "uint256",
              "name": "tokenId",
              "type": "uint256"
            },
            {
              "internalType": "address",
              "name": "seller",
              "type": "address"
            },
            {
              "internalType": "address",
              "name": "owner",
              "type": "address"
            },
            {
              "internalType": "address",
              "name": "winner",
              "type": "address"
            },
            {
              "internalType": "uint256",
              "name": "price",
              "type": "uint256"
            },
            {
              "internalType": "bool",
              "name": "sold",
              "type": "bool"
            },
            {
              "internalType": "bool",
              "name": "live",
              "type": "bool"
            },
            {
              "internalType": "bool",
              "name": "biddable",
              "type": "bool"
            },
            {
              "internalType": "uint256",
              "name": "bids",
              "type": "uint256"
            },
            {
              "internalType": "uint256",
              "name": "duration",
              "type": "uint256"
            }
          ],
          "internalType": "struct Auction.AuctionStruct[]",
          "name": "Auctions",
          "type": "tuple[]"
        }
      ],
      "stateMutability": "view",
      "type": "function"
    },
    {
      "inputs": [],
      "name": "getMyAuctions",
      "outputs": [
        {
          "components": [
            {
              "internalType": "string",
              "name": "name",
              "type": "string"
            },
            {
              "internalType": "string",
              "name": "description",
              "type": "string"
            },
            {
              "internalType": "string",
              "name": "image",
              "type": "string"
            },
            {
              "internalType": "uint256",
              "name": "tokenId",
              "type": "uint256"
            },
            {
              "internalType": "address",
              "name": "seller",
              "type": "address"
            },
            {
              "internalType": "address",
              "name": "owner",
              "type": "address"
            },
            {
              "internalType": "address",
              "name": "winner",
              "type": "address"
            },
            {
              "internalType": "uint256",
              "name": "price",
              "type": "uint256"
            },
            {
              "internalType": "bool",
              "name": "sold",
              "type": "bool"
            },
            {
              "internalType": "bool",
              "name": "live",
              "type": "bool"
            },
            {
              "internalType": "bool",
              "name": "biddable",
              "type": "bool"
            },
            {
              "internalType": "uint256",
              "name": "bids",
              "type": "uint256"
            },
            {
              "internalType": "uint256",
              "name": "duration",
              "type": "uint256"
            }
          ],
          "internalType": "struct Auction.AuctionStruct[]",
          "name": "Auctions",
          "type": "tuple[]"
        }
      ],
      "stateMutability": "view",
      "type": "function"
    },
    {
      "inputs": [],
      "name": "getSoldAuction",
      "outputs": [
        {
          "components": [
            {
              "internalType": "string",
              "name": "name",
              "type": "string"
            },
            {
              "internalType": "string",
              "name": "description",
              "type": "string"
            },
            {
              "internalType": "string",
              "name": "image",
              "type": "string"
            },
            {
              "internalType": "uint256",
              "name": "tokenId",
              "type": "uint256"
            },
            {
              "internalType": "address",
              "name": "seller",
              "type": "address"
            },
            {
              "internalType": "address",
              "name": "owner",
              "type": "address"
            },
            {
              "internalType": "address",
              "name": "winner",
              "type": "address"
            },
            {
              "internalType": "uint256",
              "name": "price",
              "type": "uint256"
            },
            {
              "internalType": "bool",
              "name": "sold",
              "type": "bool"
            },
            {
              "internalType": "bool",
              "name": "live",
              "type": "bool"
            },
            {
              "internalType": "bool",
              "name": "biddable",
              "type": "bool"
            },
            {
              "internalType": "uint256",
              "name": "bids",
              "type": "uint256"
            },
            {
              "internalType": "uint256",
              "name": "duration",
              "type": "uint256"
            }
          ],
          "internalType": "struct Auction.AuctionStruct[]",
          "name": "Auctions",
          "type": "tuple[]"
        }
      ],
      "stateMutability": "view",
      "type": "function"
    },
    {
      "inputs": [],
      "name": "getUnsoldAuction",
      "outputs": [
        {
          "components": [
            {
              "internalType": "string",
              "name": "name",
              "type": "string"
            },
            {
              "internalType": "string",
              "name": "description",
              "type": "string"
            },
            {
              "internalType": "string",
              "name": "image",
              "type": "string"
            },
            {
              "internalType": "uint256",
              "name": "tokenId",
              "type": "uint256"
            },
            {
              "internalType": "address",
              "name": "seller",
              "type": "address"
            },
            {
              "internalType": "address",
              "name": "owner",
              "type": "address"
            },
            {
              "internalType": "address",
              "name": "winner",
              "type": "address"
            },
            {
              "internalType": "uint256",
              "name": "price",
              "type": "uint256"
            },
            {
              "internalType": "bool",
              "name": "sold",
              "type": "bool"
            },
            {
              "internalType": "bool",
              "name": "live",
              "type": "bool"
            },
            {
              "internalType": "bool",
              "name": "biddable",
              "type": "bool"
            },
            {
              "internalType": "uint256",
              "name": "bids",
              "type": "uint256"
            },
            {
              "internalType": "uint256",
              "name": "duration",
              "type": "uint256"
            }
          ],
          "internalType": "struct Auction.AuctionStruct[]",
          "name": "Auctions",
          "type": "tuple[]"
        }
      ],
      "stateMutability": "view",
      "type": "function"
    },
    {
      "inputs": [
        {
          "internalType": "address",
          "name": "owner",
          "type": "address"
        },
        {
          "internalType": "address",
          "name": "operator",
          "type": "address"
        }
      ],
      "name": "isApprovedForAll",
      "outputs": [
        {
          "internalType": "bool",
          "name": "",
          "type": "bool"
        }
      ],
      "stateMutability": "view",
      "type": "function"
    },
    {
      "inputs": [],
      "name": "name",
      "outputs": [
        {
          "internalType": "string",
          "name": "",
          "type": "string"
        }
      ],
      "stateMutability": "view",
      "type": "function"
    },
    {
      "inputs": [
        {
          "internalType": "uint256",
          "name": "tokenId",
          "type": "uint256"
        },
        {
          "internalType": "bool",
          "name": "biddable",
          "type": "bool"
        },
        {
          "internalType": "uint256",
          "name": "sec",
          "type": "uint256"
        },
        {
          "internalType": "uint256",
          "name": "min",
          "type": "uint256"
        },
        {
          "internalType": "uint256",
          "name": "hour",
          "type": "uint256"
        },
        {
          "internalType": "uint256",
          "name": "day",
          "type": "uint256"
        }
      ],
      "name": "offerAuction",
      "outputs": [],
      "stateMutability": "nonpayable",
      "type": "function"
    },
    {
      "inputs": [
        {
          "internalType": "uint256",
          "name": "tokenId",
          "type": "uint256"
        }
      ],
      "name": "ownerOf",
      "outputs": [
        {
          "internalType": "address",
          "name": "",
          "type": "address"
        }
      ],
      "stateMutability": "view",
      "type": "function"
    },
    {
      "inputs": [
        {
          "internalType": "uint256",
          "name": "tokenId",
          "type": "uint256"
        }
      ],
      "name": "placeBid",
      "outputs": [],
      "stateMutability": "payable",
      "type": "function"
    },
    {
      "inputs": [
        {
          "internalType": "address",
          "name": "from",
          "type": "address"
        },
        {
          "internalType": "address",
          "name": "to",
          "type": "address"
        },
        {
          "internalType": "uint256",
          "name": "tokenId",
          "type": "uint256"
        }
      ],
      "name": "safeTransferFrom",
      "outputs": [],
      "stateMutability": "nonpayable",
      "type": "function"
    },
    {
      "inputs": [
        {
          "internalType": "address",
          "name": "from",
          "type": "address"
        },
        {
          "internalType": "address",
          "name": "to",
          "type": "address"
        },
        {
          "internalType": "uint256",
          "name": "tokenId",
          "type": "uint256"
        },
        {
          "internalType": "bytes",
          "name": "data",
          "type": "bytes"
        }
      ],
      "name": "safeTransferFrom",
      "outputs": [],
      "stateMutability": "nonpayable",
      "type": "function"
    },
    {
      "inputs": [
        {
          "internalType": "address",
          "name": "operator",
          "type": "address"
        },
        {
          "internalType": "bool",
          "name": "approved",
          "type": "bool"
        }
      ],
      "name": "setApprovalForAll",
      "outputs": [],
      "stateMutability": "nonpayable",
      "type": "function"
    },
    {
      "inputs": [
        {
          "internalType": "uint256",
          "name": "_price",
          "type": "uint256"
        }
      ],
      "name": "setListingPrice",
      "outputs": [],
      "stateMutability": "nonpayable",
      "type": "function"
    },
    {
      "inputs": [
        {
          "internalType": "bytes4",
          "name": "interfaceId",
          "type": "bytes4"
        }
      ],
      "name": "supportsInterface",
      "outputs": [
        {
          "internalType": "bool",
          "name": "",
          "type": "bool"
        }
      ],
      "stateMutability": "view",
      "type": "function"
    },
    {
      "inputs": [],
      "name": "symbol",
      "outputs": [
        {
          "internalType": "string",
          "name": "",
          "type": "string"
        }
      ],
      "stateMutability": "view",
      "type": "function"
    },
    {
      "inputs": [
        {
          "internalType": "uint256",
          "name": "tokenId",
          "type": "uint256"
        }
      ],
      "name": "tokenURI",
      "outputs": [
        {
          "internalType": "string",
          "name": "",
          "type": "string"
        }
      ],
      "stateMutability": "view",
      "type": "function"
    },
    {
      "inputs": [
        {
          "internalType": "address",
          "name": "from",
          "type": "address"
        },
        {
          "internalType": "address",
          "name": "to",
          "type": "address"
        },
        {
          "internalType": "uint256",
          "name": "tokenId",
          "type": "uint256"
        }
      ],
      "name": "transferFrom",
      "outputs": [],
      "stateMutability": "nonpayable",
      "type": "function"
    }
  ],
  "bytecode": "0x608060405266038d7ea4c68000600a553480156200001c57600080fd5b5060405162004451380380620044518339810160408190526200003f916200017f565b604080518082018252601681527f4269644372616674204e46542048756220546f6b656e000000000000000000006020808301918252835180850190945260048452631093921560e21b908401528151919291620000a091600091620000d9565b508051620000b6906001906020840190620000d9565b5050600160075550600980546001600160a01b03191633179055600b55620001d6565b828054620000e79062000199565b90600052602060002090601f0160209004810192826200010b576000855562000156565b82601f106200012657805160ff191683800117855562000156565b8280016001018555821562000156579182015b828111156200015657825182559160200191906001019062000139565b506200016492915062000168565b5090565b5b8082111562000164576000815560010162000169565b6000602082840312156200019257600080fd5b5051919050565b600181811c90821680620001ae57607f821691505b60208210811415620001d057634e487b7160e01b600052602260045260246000fd5b50919050565b61426b80620001e66000396000f3fe6080604052600436106101b75760003560e01c80637c726b69116100ec578063b88d4fde1161008a578063cbd2bdfd11610064578063cbd2bdfd146104cd578063db0bd5c9146104e2578063e985e9c5146104f7578063f5a06acf1461054057600080fd5b8063b88d4fde14610478578063bf65a33314610498578063c87b56dd146104ad57600080fd5b80639e78efd6116100c65780639e78efd614610403578063a22cb46514610418578063a923f18c14610438578063b3de019c1461045857600080fd5b80637c726b69146103bb57806395d89b41146103db5780639979ef45146103f057600080fd5b806333748dcb116101595780636352211e116101335780636352211e1461032e57806370a082311461034e57806378bd79351461036e5780637b1541401461039b57600080fd5b806333748dcb146102ce57806342842e0e146102e15780634fa7b5071461030157600080fd5b8063095ea7b311610195578063095ea7b31461024b57806312e855851461026d5780631d8df68f1461028c57806323b872dd146102ae57600080fd5b806301ffc9a7146101bc57806306fdde03146101f1578063081812fc14610213575b600080fd5b3480156101c857600080fd5b506101dc6101d73660046139c1565b610553565b60405190151581526020015b60405180910390f35b3480156101fd57600080fd5b5061020661057e565b6040516101e89190613a36565b34801561021f57600080fd5b5061023361022e366004613a49565b610610565b6040516001600160a01b0390911681526020016101e8565b34801561025757600080fd5b5061026b610266366004613a7e565b610637565b005b34801561027957600080fd5b50600a545b6040519081526020016101e8565b34801561029857600080fd5b506102a1610752565b6040516101e89190613ba8565b3480156102ba57600080fd5b5061026b6102c9366004613c0a565b610af0565b61026b6102dc366004613cf2565b610b21565b3480156102ed57600080fd5b5061026b6102fc366004613c0a565b610e3d565b34801561030d57600080fd5b5061032161031c366004613a49565b610e58565b6040516101e89190613da7565b34801561033a57600080fd5b50610233610349366004613a49565b610f0a565b34801561035a57600080fd5b5061027e610369366004613e22565b610f6a565b34801561037a57600080fd5b5061038e610389366004613a49565b610ff0565b6040516101e89190613e3d565b3480156103a757600080fd5b5061026b6103b6366004613e50565b6112b0565b3480156103c757600080fd5b5061026b6103d6366004613a49565b611509565b3480156103e757600080fd5b50610206611538565b61026b6103fe366004613a49565b611547565b34801561040f57600080fd5b506102a1611778565b34801561042457600080fd5b5061026b610433366004613e82565b611b0d565b34801561044457600080fd5b5061026b610453366004613eb5565b611b1c565b34801561046457600080fd5b5061026b610473366004613e50565b611c97565b34801561048457600080fd5b5061026b610493366004613f03565b611d96565b3480156104a457600080fd5b506102a1611dce565b3480156104b957600080fd5b506102066104c8366004613a49565b612175565b3480156104d957600080fd5b506102a1612286565b3480156104ee57600080fd5b506102a1612590565b34801561050357600080fd5b506101dc610512366004613f7f565b6001600160a01b03918216600090815260056020908152604080832093909416825291909152205460ff1690565b61026b61054e366004613a49565b61293b565b60006001600160e01b03198216632483248360e11b1480610578575061057882612bae565b92915050565b60606000805461058d90613fa9565b80601f01602080910402602001604051908101604052809291908181526020018280546105b990613fa9565b80156106065780601f106105db57610100808354040283529160200191610606565b820191906000526020600020905b8154815290600101906020018083116105e957829003601f168201915b5050505050905090565b600061061b82612bfe565b506000908152600460205260409020546001600160a01b031690565b600061064282610f0a565b9050806001600160a01b0316836001600160a01b031614156106b55760405162461bcd60e51b815260206004820152602160248201527f4552433732313a20617070726f76616c20746f2063757272656e74206f776e656044820152603960f91b60648201526084015b60405180910390fd5b336001600160a01b03821614806106d157506106d18133610512565b6107435760405162461bcd60e51b815260206004820152603d60248201527f4552433732313a20617070726f76652063616c6c6572206973206e6f7420746f60448201527f6b656e206f776e6572206f7220617070726f76656420666f7220616c6c00000060648201526084016106ac565b61074d8383612c5d565b505050565b6060600061075f60085490565b90506000805b828110156107b857600c600061077c836001613ffa565b815260208101919091526040016000206008015460ff16156107a657816107a281614012565b9250505b806107b081614012565b915050610765565b508067ffffffffffffffff8111156107d2576107d2613c46565b60405190808252806020026020018201604052801561080b57816020015b6107f861382e565b8152602001906001900390816107f05790505b5092506000805b83811015610ae957600c6000610829836001613ffa565b815260208101919091526040016000206008015460ff1615610ad757600c6000610854836001613ffa565b8152602001908152602001600020604051806101a001604052908160008201805461087e90613fa9565b80601f01602080910402602001604051908101604052809291908181526020018280546108aa90613fa9565b80156108f75780601f106108cc576101008083540402835291602001916108f7565b820191906000526020600020905b8154815290600101906020018083116108da57829003601f168201915b5050505050815260200160018201805461091090613fa9565b80601f016020809104026020016040519081016040528092919081815260200182805461093c90613fa9565b80156109895780601f1061095e57610100808354040283529160200191610989565b820191906000526020600020905b81548152906001019060200180831161096c57829003601f168201915b505050505081526020016002820180546109a290613fa9565b80601f01602080910402602001604051908101604052809291908181526020018280546109ce90613fa9565b8015610a1b5780601f106109f057610100808354040283529160200191610a1b565b820191906000526020600020905b8154815290600101906020018083116109fe57829003601f168201915b50505091835250506003820154602082015260048201546001600160a01b0390811660408301526005830154811660608301526006830154166080820152600782015460a0820152600882015460ff808216151560c08401526101008083048216151560e085015262010000909204161515908201526009820154610120820152600a90910154610140909101528551869084908110610abd57610abd61402d565b60200260200101819052508180610ad390614012565b9250505b80610ae181614012565b915050610812565b5050505090565b610afa3382612ccb565b610b165760405162461bcd60e51b81526004016106ac90614043565b61074d838383612d49565b610b29612ead565b60008111610b8c5760405162461bcd60e51b815260206004820152602a60248201527f53616c6573207072696365206d7573742062652067726561746572207468616e60448201526910181032ba3432b9399760b11b60648201526084016106ac565b600a54341015610bed5760405162461bcd60e51b815260206004820152602660248201527f5072696365206d75737420626520757020746f20746865206c697374696e6720604482015265383934b1b29760d11b60648201526084016106ac565b610bf682612f07565b610c395760405162461bcd60e51b815260206004820152601460248201527321b7bab632103737ba1036b4b73a103a37b5b2b760611b60448201526064016106ac565b6000610c4460085490565b9050610c4e61382e565b60608101829052868152602081018690526040810185905260e08101839052610c7a6000808080612f41565b610180820152336080820181905260a08201526000828152600c60209081526040909120825180518493610cb29284929101906138b7565b506020828101518051610ccb92600185019201906138b7565b5060408201518051610ce79160028401916020909101906138b7565b506060820151600382015560808201516004820180546001600160a01b03199081166001600160a01b039384161790915560a0840151600584018054831691841691909117905560c084015160068401805490921690831617905560e083015160078301556101008084015160088401805461012087015161014088015161ffff1990921693151561ff001916939093179215159093029190911762ff00001916620100009215159290920291909117905561016083015160098084019190915561018090930151600a928301556000858152600d60205260409020805460ff1916600117905591549054610de0929190911690612fa3565b604080513381526000602082018190528183018690526060820152905183917fa693a8f68fe4df789541ddd1b84d32ccaea90adddcc88406b4bbbf6466328d3c919081900360800190a25050610e366001600755565b5050505050565b61074d83838360405180602001604052806000815250611d96565b6060600f6000838152602001908152602001600020805480602002602001604051908101604052809291908181526020016000905b82821015610eff5760008481526020908190206040805160a0810182526004860290920180546001600160a01b03168352600180820154848601526002820154928401929092526003015460ff8082161515606085015261010090910416151560808301529083529092019101610e8d565b505050509050919050565b6000818152600260205260408120546001600160a01b0316806105785760405162461bcd60e51b8152602060048201526018602482015277115490cdcc8c4e881a5b9d985b1a59081d1bdad95b88125160421b60448201526064016106ac565b60006001600160a01b038216610fd45760405162461bcd60e51b815260206004820152602960248201527f4552433732313a2061646472657373207a65726f206973206e6f7420612076616044820152683634b21037bbb732b960b91b60648201526084016106ac565b506001600160a01b031660009081526003602052604090205490565b610ff861382e565b6000828152600d602052604090205460ff166110565760405162461bcd60e51b815260206004820152601860248201527f41756374696f6e6564204974656d206e6f7420666f756e64000000000000000060448201526064016106ac565b6000828152600c60205260409081902081516101a0810190925280548290829061107f90613fa9565b80601f01602080910402602001604051908101604052809291908181526020018280546110ab90613fa9565b80156110f85780601f106110cd576101008083540402835291602001916110f8565b820191906000526020600020905b8154815290600101906020018083116110db57829003601f168201915b5050505050815260200160018201805461111190613fa9565b80601f016020809104026020016040519081016040528092919081815260200182805461113d90613fa9565b801561118a5780601f1061115f5761010080835404028352916020019161118a565b820191906000526020600020905b81548152906001019060200180831161116d57829003601f168201915b505050505081526020016002820180546111a390613fa9565b80601f01602080910402602001604051908101604052809291908181526020018280546111cf90613fa9565b801561121c5780601f106111f15761010080835404028352916020019161121c565b820191906000526020600020905b8154815290600101906020018083116111ff57829003601f168201915b50505091835250506003820154602082015260048201546001600160a01b0390811660408301526005830154811660608301526006830154166080820152600782015460a0820152600882015460ff808216151560c08401526101008083048216151560e085015262010000909204161515908201526009820154610120820152600a909101546101409091015292915050565b6000828152600c60205260408120600a0154906112cf90808080612f41565b116113115760405162461bcd60e51b815260206004820152601260248201527141756374696f6e207374696c6c204c69766560701b60448201526064016106ac565b6000828152600c60205260409020600601546001600160a01b031633146113735760405162461bcd60e51b81526020600482015260166024820152752cb7ba9030b932903737ba103a3432903bb4b73732b960511b60448201526064016106ac565b6000828152600f60205260409020805460019190839081106113975761139761402d565b60009182526020808320600492830201600301805461ff0019166101009515159590950294909417909355848252600c909252604081206007810154928101546006820180546001600160a01b031916905560088201805461ffff1916600117905560099091018290556001600160a01b03169061141790808080612f41565b6000858152600c60205260408120600a0191909155600b5460649061143c9085614090565b61144691906140af565b6000868152600c6020526040902060050154909150611477906001600160a01b031661147283866140d1565b612fa3565b6114818282612fa3565b6040516323b872dd60e01b8152306004820181905233602483015260448201879052906323b872dd90606401600060405180830381600087803b1580156114c757600080fd5b505af11580156114db573d6000803e3d6000fd5b5050506000868152600c6020526040902060050180546001600160a01b0319163317905550610e368561300a565b6009546001600160a01b031633146115335760405162461bcd60e51b81526004016106ac906140e8565b600a55565b60606001805461058d90613fa9565b6000818152600c602052604090206007015434101561159e5760405162461bcd60e51b8152602060048201526013602482015272125b9cdd59999a58da595b9d08105b5bdd5b9d606a1b60448201526064016106ac565b6115ac600080600080612f41565b6000828152600c60205260409020600a0154116116035760405162461bcd60e51b815260206004820152601560248201527441756374696f6e206e6f7420617661696c61626c6560581b60448201526064016106ac565b6000818152600c602052604090206008015462010000900460ff1661166a5760405162461bcd60e51b815260206004820152601860248201527f41756374696f6e206f6e6c7920666f722062696464696e67000000000000000060448201526064016106ac565b6040805160a08101825260009181018290526060810182905260808101829052338152346020820152906116a090808080612f41565b60408083019182526000848152600f6020908152828220805460018181018355918452828420875160049092020180546001600160a01b039092166001600160a01b0319909216919091178155828701519181019190915593516002850155606085015160039094018054608087015115156101000261ff00199615159690961661ffff199091161794909417909355848152600c909252812060090180549161174983614012565b9091555050506000908152600c6020526040902034600782015560060180546001600160a01b03191633179055565b6060600061178560085490565b90506000805b828110156117dd57600c60006117a2836001613ffa565b815260208101919091526040016000206008015460ff166117cb57816117c781614012565b9250505b806117d581614012565b91505061178b565b508067ffffffffffffffff8111156117f7576117f7613c46565b60405190808252806020026020018201604052801561183057816020015b61181d61382e565b8152602001906001900390816118155790505b5092506000805b83811015610ae957600c600061184e836001613ffa565b815260208101919091526040016000206008015460ff16611afb57600c6000611878836001613ffa565b8152602001908152602001600020604051806101a00160405290816000820180546118a290613fa9565b80601f01602080910402602001604051908101604052809291908181526020018280546118ce90613fa9565b801561191b5780601f106118f05761010080835404028352916020019161191b565b820191906000526020600020905b8154815290600101906020018083116118fe57829003601f168201915b5050505050815260200160018201805461193490613fa9565b80601f016020809104026020016040519081016040528092919081815260200182805461196090613fa9565b80156119ad5780601f10611982576101008083540402835291602001916119ad565b820191906000526020600020905b81548152906001019060200180831161199057829003601f168201915b505050505081526020016002820180546119c690613fa9565b80601f01602080910402602001604051908101604052809291908181526020018280546119f290613fa9565b8015611a3f5780601f10611a1457610100808354040283529160200191611a3f565b820191906000526020600020905b815481529060010190602001808311611a2257829003601f168201915b50505091835250506003820154602082015260048201546001600160a01b0390811660408301526005830154811660608301526006830154166080820152600782015460a0820152600882015460ff808216151560c08401526101008083048216151560e085015262010000909204161515908201526009820154610120820152600a90910154610140909101528551869084908110611ae157611ae161402d565b60200260200101819052508180611af790614012565b9250505b80611b0581614012565b915050611837565b611b183383836131eb565b5050565b6000868152600c60205260409020600501546001600160a01b03163314611b555760405162461bcd60e51b81526004016106ac906140e8565b6000868152600c602052604090206009015415611bb45760405162461bcd60e51b815260206004820152601f60248201527f57696e6e65722073686f756c6420636c61696d207072697a652066697273740060448201526064016106ac565b6000868152600c6020526040902060080154610100900460ff16611c3c57611bdd306001611b0d565b6040516323b872dd60e01b8152336004820152306024820181905260448201889052906323b872dd90606401600060405180830381600087803b158015611c2357600080fd5b505af1158015611c37573d6000803e3d6000fd5b505050505b6000868152600c6020526040812060098101919091556008018054861515620100000262ffffff1990911617610100179055611c7a84848484612f41565b6000968752600c6020526040909620600a01959095555050505050565b6000828152600c60205260409020600501546001600160a01b03163314611cd05760405162461bcd60e51b81526004016106ac906140e8565b6000828152600c60205260408120600a015490611cef90808080612f41565b11611d315760405162461bcd60e51b815260206004820152601260248201527141756374696f6e207374696c6c204c69766560701b60448201526064016106ac565b60008111611d815760405162461bcd60e51b815260206004820152601f60248201527f5072696365206d7573742062652067726561746572207468616e207a65726f0060448201526064016106ac565b6000918252600c602052604090912060070155565b611da03383612ccb565b611dbc5760405162461bcd60e51b81526004016106ac90614043565b611dc8848484846132ba565b50505050565b60606000611ddb60085490565b90506000805b82811015611e3c5733600c6000611df9846001613ffa565b81526020810191909152604001600020600501546001600160a01b03161415611e2a5781611e2681614012565b9250505b80611e3481614012565b915050611de1565b508067ffffffffffffffff811115611e5657611e56613c46565b604051908082528060200260200182016040528015611e8f57816020015b611e7c61382e565b815260200190600190039081611e745790505b5092506000805b83811015610ae95733600c6000611eae846001613ffa565b81526020810191909152604001600020600501546001600160a01b0316141561216357600c6000611ee0836001613ffa565b8152602001908152602001600020604051806101a0016040529081600082018054611f0a90613fa9565b80601f0160208091040260200160405190810160405280929190818152602001828054611f3690613fa9565b8015611f835780601f10611f5857610100808354040283529160200191611f83565b820191906000526020600020905b815481529060010190602001808311611f6657829003601f168201915b50505050508152602001600182018054611f9c90613fa9565b80601f0160208091040260200160405190810160405280929190818152602001828054611fc890613fa9565b80156120155780601f10611fea57610100808354040283529160200191612015565b820191906000526020600020905b815481529060010190602001808311611ff857829003601f168201915b5050505050815260200160028201805461202e90613fa9565b80601f016020809104026020016040519081016040528092919081815260200182805461205a90613fa9565b80156120a75780601f1061207c576101008083540402835291602001916120a7565b820191906000526020600020905b81548152906001019060200180831161208a57829003601f168201915b50505091835250506003820154602082015260048201546001600160a01b0390811660408301526005830154811660608301526006830154166080820152600782015460a0820152600882015460ff808216151560c08401526101008083048216151560e085015262010000909204161515908201526009820154610120820152600a909101546101409091015285518690849081106121495761214961402d565b6020026020010181905250818061215f90614012565b9250505b8061216d81614012565b915050611e96565b606061218082612bfe565b6000828152600660205260408120805461219990613fa9565b80601f01602080910402602001604051908101604052809291908181526020018280546121c590613fa9565b80156122125780601f106121e757610100808354040283529160200191612212565b820191906000526020600020905b8154815290600101906020018083116121f557829003601f168201915b50505050509050600061223060408051602081019091526000815290565b9050805160001415612243575092915050565b81511561227557808260405160200161225d929190614115565b60405160208183030381529060405292505050919050565b61227e846132ed565b949350505050565b6060600061229360085490565b90508067ffffffffffffffff8111156122ae576122ae613c46565b6040519080825280602002602001820160405280156122e757816020015b6122d461382e565b8152602001906001900390816122cc5790505b50915060005b8181101561258b57600c6000612304836001613ffa565b8152602001908152602001600020604051806101a001604052908160008201805461232e90613fa9565b80601f016020809104026020016040519081016040528092919081815260200182805461235a90613fa9565b80156123a75780601f1061237c576101008083540402835291602001916123a7565b820191906000526020600020905b81548152906001019060200180831161238a57829003601f168201915b505050505081526020016001820180546123c090613fa9565b80601f01602080910402602001604051908101604052809291908181526020018280546123ec90613fa9565b80156124395780601f1061240e57610100808354040283529160200191612439565b820191906000526020600020905b81548152906001019060200180831161241c57829003601f168201915b5050505050815260200160028201805461245290613fa9565b80601f016020809104026020016040519081016040528092919081815260200182805461247e90613fa9565b80156124cb5780601f106124a0576101008083540402835291602001916124cb565b820191906000526020600020905b8154815290600101906020018083116124ae57829003601f168201915b50505091835250506003820154602082015260048201546001600160a01b0390811660408301526005830154811660608301526006830154166080820152600782015460a0820152600882015460ff808216151560c08401526101008083048216151560e085015262010000909204161515908201526009820154610120820152600a9091015461014090910152835184908390811061256d5761256d61402d565b6020026020010181905250808061258390614012565b9150506122ed565b505090565b6060600061259d60085490565b90506000805b82811015612600576125b9600080600080612f41565b600c60006125c8846001613ffa565b8152602001908152602001600020600a015411156125ee57816125ea81614012565b9250505b806125f881614012565b9150506125a3565b508067ffffffffffffffff81111561261a5761261a613c46565b60405190808252806020026020018201604052801561265357816020015b61264061382e565b8152602001906001900390816126385790505b5092506000805b83811015610ae957612670600080600080612f41565b600c600061267f846001613ffa565b8152602001908152602001600020600a0154111561292957600c60006126a6836001613ffa565b8152602001908152602001600020604051806101a00160405290816000820180546126d090613fa9565b80601f01602080910402602001604051908101604052809291908181526020018280546126fc90613fa9565b80156127495780601f1061271e57610100808354040283529160200191612749565b820191906000526020600020905b81548152906001019060200180831161272c57829003601f168201915b5050505050815260200160018201805461276290613fa9565b80601f016020809104026020016040519081016040528092919081815260200182805461278e90613fa9565b80156127db5780601f106127b0576101008083540402835291602001916127db565b820191906000526020600020905b8154815290600101906020018083116127be57829003601f168201915b505050505081526020016002820180546127f490613fa9565b80601f016020809104026020016040519081016040528092919081815260200182805461282090613fa9565b801561286d5780601f106128425761010080835404028352916020019161286d565b820191906000526020600020905b81548152906001019060200180831161285057829003601f168201915b50505091835250506003820154602082015260048201546001600160a01b0390811660408301526005830154811660608301526006830154166080820152600782015460a0820152600882015460ff808216151560c08401526101008083048216151560e085015262010000909204161515908201526009820154610120820152600a9091015461014090910152855186908490811061290f5761290f61402d565b6020026020010181905250818061292590614012565b9250505b8061293381614012565b91505061265a565b612943612ead565b6000818152600c602052604090206007015434101561299a5760405162461bcd60e51b8152602060048201526013602482015272125b9cdd59999a58da595b9d08105b5bdd5b9d606a1b60448201526064016106ac565b6129a8600080600080612f41565b6000828152600c60205260409020600a0154116129ff5760405162461bcd60e51b815260206004820152601560248201527441756374696f6e206e6f7420617661696c61626c6560581b60448201526064016106ac565b6000818152600c602052604090206008015462010000900460ff1615612a675760405162461bcd60e51b815260206004820152601960248201527f41756374696f6e206f6e6c7920666f722070757263686173650000000000000060448201526064016106ac565b6000818152600c60205260408120600481015460088201805461ffff1916600117905560099091018290556001600160a01b031690612aa890808080612f41565b6000838152600c60205260408120600a0191909155600b54606490612acd9034614090565b612ad791906140af565b6000848152600c6020526040902060050154909150612b03906001600160a01b031661147283346140d1565b612b0d8282612fa3565b6000838152600c6020526040908190206003015490516323b872dd60e01b8152306004820181905233602483015260448201929092526323b872dd90606401600060405180830381600087803b158015612b6657600080fd5b505af1158015612b7a573d6000803e3d6000fd5b5050506000848152600c6020526040902060050180546001600160a01b0319163317905550612bab91506130039050565b50565b60006001600160e01b031982166380ac58cd60e01b1480612bdf57506001600160e01b03198216635b5e139f60e01b145b8061057857506301ffc9a760e01b6001600160e01b0319831614610578565b6000818152600260205260409020546001600160a01b0316612bab5760405162461bcd60e51b8152602060048201526018602482015277115490cdcc8c4e881a5b9d985b1a59081d1bdad95b88125160421b60448201526064016106ac565b600081815260046020526040902080546001600160a01b0319166001600160a01b0384169081179091558190612c9282610f0a565b6001600160a01b03167f8c5be1e5ebec7d5bd14f71427d1e84f3dd0314c0f7b2291e5b200ac8c7c3b92560405160405180910390a45050565b600080612cd783610f0a565b9050806001600160a01b0316846001600160a01b03161480612d1e57506001600160a01b0380821660009081526005602090815260408083209388168352929052205460ff165b8061227e5750836001600160a01b0316612d3784610610565b6001600160a01b031614949350505050565b826001600160a01b0316612d5c82610f0a565b6001600160a01b031614612d825760405162461bcd60e51b81526004016106ac90614144565b6001600160a01b038216612de45760405162461bcd60e51b8152602060048201526024808201527f4552433732313a207472616e7366657220746f20746865207a65726f206164646044820152637265737360e01b60648201526084016106ac565b826001600160a01b0316612df782610f0a565b6001600160a01b031614612e1d5760405162461bcd60e51b81526004016106ac90614144565b600081815260046020908152604080832080546001600160a01b03199081169091556001600160a01b0387811680865260038552838620805460001901905590871680865283862080546001019055868652600290945282852080549092168417909155905184937fddf252ad1be2c89b69c2b068fc378daa952ba7f163c4a11628f55a4df523b3ef91a4505050565b60026007541415612f005760405162461bcd60e51b815260206004820152601f60248201527f5265656e7472616e637947756172643a207265656e7472616e742063616c6c0060448201526064016106ac565b6002600755565b6000612f17600880546001019055565b6000612f2260085490565b9050612f2e3382613361565b612f3881846134ec565b50600192915050565b6000612f508262015180614090565b612f5c84610e10614090565b612f6786603c614090565b612f72886001614090565b612f7c9042613ffa565b612f869190613ffa565b612f909190613ffa565b612f9a9190613ffa565b95945050505050565b6000826001600160a01b03168260405160006040518083038185875af1925050503d8060008114612ff0576040519150601f19603f3d011682016040523d82523d6000602084013e612ff5565b606091505b505090508061074d57600080fd5b6001600755565b60005b6000828152600f60205260409020548110156131d3576000828152600f602052604090208054339190839081106130465761304661402d565b60009182526020909120600490910201546001600160a01b031614613132576000828152600f60205260409020805460019190839081106130895761308961402d565b906000526020600020906004020160030160006101000a81548160ff02191690831515021790555061312d600f600084815260200190815260200160002082815481106130d8576130d861402d565b60009182526020808320600490920290910154858352600f909152604090912080546001600160a01b0390921691849081106131165761311661402d565b906000526020600020906004020160010154612fa3565b61317f565b6000828152600f60205260409020805460019190839081106131565761315661402d565b906000526020600020906004020160030160016101000a81548160ff0219169083151502179055505b61318d600080600080612f41565b6000838152600f602052604090208054839081106131ad576131ad61402d565b6000918252602090912060026004909202010155806131cb81614012565b91505061300d565b506000818152600f60205260408120612bab9161393b565b816001600160a01b0316836001600160a01b0316141561324d5760405162461bcd60e51b815260206004820152601960248201527f4552433732313a20617070726f766520746f2063616c6c65720000000000000060448201526064016106ac565b6001600160a01b03838116600081815260056020908152604080832094871680845294825291829020805460ff191686151590811790915591519182527f17307eab39ab6107e8899845ad3d59bd9653f200f220920489ca2b5937696c31910160405180910390a3505050565b6132c5848484612d49565b6132d1848484846135be565b611dc85760405162461bcd60e51b81526004016106ac90614189565b60606132f882612bfe565b600061330f60408051602081019091526000815290565b9050600081511161332f576040518060200160405280600081525061335a565b80613339846136b9565b60405160200161334a929190614115565b6040516020818303038152906040525b9392505050565b6001600160a01b0382166133b75760405162461bcd60e51b815260206004820181905260248201527f4552433732313a206d696e7420746f20746865207a65726f206164647265737360448201526064016106ac565b6000818152600260205260409020546001600160a01b03161561341c5760405162461bcd60e51b815260206004820152601c60248201527f4552433732313a20746f6b656e20616c7265616479206d696e7465640000000060448201526064016106ac565b6000818152600260205260409020546001600160a01b0316156134815760405162461bcd60e51b815260206004820152601c60248201527f4552433732313a20746f6b656e20616c7265616479206d696e7465640000000060448201526064016106ac565b6001600160a01b038216600081815260036020908152604080832080546001019055848352600290915280822080546001600160a01b0319168417905551839291907fddf252ad1be2c89b69c2b068fc378daa952ba7f163c4a11628f55a4df523b3ef908290a45050565b6000828152600260205260409020546001600160a01b03166135675760405162461bcd60e51b815260206004820152602e60248201527f45524337323155524953746f726167653a2055524920736574206f66206e6f6e60448201526d32bc34b9ba32b73a103a37b5b2b760911b60648201526084016106ac565b60008281526006602090815260409091208251613586928401906138b7565b506040518281527ff8e1a15aba9398e019f0b49df1a4fde98ee17ae345cb5f6b5e2c27f5033e8ce79060200160405180910390a15050565b60006001600160a01b0384163b156136b157604051630a85bd0160e11b81526001600160a01b0385169063150b7a02906136029033908990889088906004016141db565b6020604051808303816000875af192505050801561363d575060408051601f3d908101601f1916820190925261363a91810190614218565b60015b613697573d80801561366b576040519150601f19603f3d011682016040523d82523d6000602084013e613670565b606091505b50805161368f5760405162461bcd60e51b81526004016106ac90614189565b805181602001fd5b6001600160e01b031916630a85bd0160e11b14905061227e565b50600161227e565b606060006136c683613756565b600101905060008167ffffffffffffffff8111156136e6576136e6613c46565b6040519080825280601f01601f191660200182016040528015613710576020820181803683370190505b5090508181016020015b600019016f181899199a1a9b1b9c1cb0b131b232b360811b600a86061a8153600a85049450846137495761374e565b61371a565b509392505050565b60008072184f03e93ff9f4daa797ed6e38ed64bf6a1f0160401b83106137955772184f03e93ff9f4daa797ed6e38ed64bf6a1f0160401b830492506040015b6d04ee2d6d415b85acef810000000083106137c1576d04ee2d6d415b85acef8100000000830492506020015b662386f26fc1000083106137df57662386f26fc10000830492506010015b6305f5e10083106137f7576305f5e100830492506008015b612710831061380b57612710830492506004015b6064831061381d576064830492506002015b600a83106105785760010192915050565b604051806101a001604052806060815260200160608152602001606081526020016000815260200160006001600160a01b0316815260200160006001600160a01b0316815260200160006001600160a01b031681526020016000815260200160001515815260200160001515815260200160001515815260200160008152602001600081525090565b8280546138c390613fa9565b90600052602060002090601f0160209004810192826138e5576000855561392b565b82601f106138fe57805160ff191683800117855561392b565b8280016001018555821561392b579182015b8281111561392b578251825591602001919060010190613910565b5061393792915061395c565b5090565b5080546000825560040290600052602060002090810190612bab9190613971565b5b80821115613937576000815560010161395d565b5b808211156139375780546001600160a01b0319168155600060018201819055600282015560038101805461ffff19169055600401613972565b6001600160e01b031981168114612bab57600080fd5b6000602082840312156139d357600080fd5b813561335a816139ab565b60005b838110156139f95781810151838201526020016139e1565b83811115611dc85750506000910152565b60008151808452613a228160208601602086016139de565b601f01601f19169290920160200192915050565b60208152600061335a6020830184613a0a565b600060208284031215613a5b57600080fd5b5035919050565b80356001600160a01b0381168114613a7957600080fd5b919050565b60008060408385031215613a9157600080fd5b613a9a83613a62565b946020939093013593505050565b60006101a08251818552613abe82860182613a0a565b91505060208301518482036020860152613ad88282613a0a565b91505060408301518482036040860152613af28282613a0a565b915050606083015160608501526080830151613b1960808601826001600160a01b03169052565b5060a0830151613b3460a08601826001600160a01b03169052565b5060c0830151613b4f60c08601826001600160a01b03169052565b5060e083015160e085015261010080840151613b6e8287018215159052565b5050610120838101511515908501526101408084015115159085015261016080840151908501526101809283015192909301919091525090565b6000602080830181845280855180835260408601915060408160051b870101925083870160005b82811015613bfd57603f19888603018452613beb858351613aa8565b94509285019290850190600101613bcf565b5092979650505050505050565b600080600060608486031215613c1f57600080fd5b613c2884613a62565b9250613c3660208501613a62565b9150604084013590509250925092565b634e487b7160e01b600052604160045260246000fd5b600067ffffffffffffffff80841115613c7757613c77613c46565b604051601f8501601f19908116603f01168101908282118183101715613c9f57613c9f613c46565b81604052809350858152868686011115613cb857600080fd5b858560208301376000602087830101525050509392505050565b600082601f830112613ce357600080fd5b61335a83833560208501613c5c565b600080600080600060a08688031215613d0a57600080fd5b853567ffffffffffffffff80821115613d2257600080fd5b613d2e89838a01613cd2565b96506020880135915080821115613d4457600080fd5b613d5089838a01613cd2565b95506040880135915080821115613d6657600080fd5b613d7289838a01613cd2565b94506060880135915080821115613d8857600080fd5b50613d9588828901613cd2565b95989497509295608001359392505050565b602080825282518282018190526000919060409081850190868401855b82811015613e1557815180516001600160a01b031685528681015187860152858101518686015260608082015115159086015260809081015115159085015260a09093019290850190600101613dc4565b5091979650505050505050565b600060208284031215613e3457600080fd5b61335a82613a62565b60208152600061335a6020830184613aa8565b60008060408385031215613e6357600080fd5b50508035926020909101359150565b80358015158114613a7957600080fd5b60008060408385031215613e9557600080fd5b613e9e83613a62565b9150613eac60208401613e72565b90509250929050565b60008060008060008060c08789031215613ece57600080fd5b86359550613ede60208801613e72565b95989597505050506040840135936060810135936080820135935060a0909101359150565b60008060008060808587031215613f1957600080fd5b613f2285613a62565b9350613f3060208601613a62565b925060408501359150606085013567ffffffffffffffff811115613f5357600080fd5b8501601f81018713613f6457600080fd5b613f7387823560208401613c5c565b91505092959194509250565b60008060408385031215613f9257600080fd5b613f9b83613a62565b9150613eac60208401613a62565b600181811c90821680613fbd57607f821691505b60208210811415613fde57634e487b7160e01b600052602260045260246000fd5b50919050565b634e487b7160e01b600052601160045260246000fd5b6000821982111561400d5761400d613fe4565b500190565b600060001982141561402657614026613fe4565b5060010190565b634e487b7160e01b600052603260045260246000fd5b6020808252602d908201527f4552433732313a2063616c6c6572206973206e6f7420746f6b656e206f776e6560408201526c1c881bdc88185c1c1c9bdd9959609a1b606082015260800190565b60008160001904831182151516156140aa576140aa613fe4565b500290565b6000826140cc57634e487b7160e01b600052601260045260246000fd5b500490565b6000828210156140e3576140e3613fe4565b500390565b602080825260139082015272556e617574686f72697a656420656e7469747960681b604082015260600190565b600083516141278184602088016139de565b83519083019061413b8183602088016139de565b01949350505050565b60208082526025908201527f4552433732313a207472616e736665722066726f6d20696e636f72726563742060408201526437bbb732b960d91b606082015260800190565b60208082526032908201527f4552433732313a207472616e7366657220746f206e6f6e20455243373231526560408201527131b2b4bb32b91034b6b83632b6b2b73a32b960711b606082015260800190565b6001600160a01b038581168252841660208201526040810183905260806060820181905260009061420e90830184613a0a565b9695505050505050565b60006020828403121561422a57600080fd5b815161335a816139ab56fea2646970667358221220b9c4141f42816e3b8210aa88dc843041209cc2df53a0b546f2d720b429e51ea964736f6c634300080b0033",
  "linkReferences": {},
  "deployedLinkReferences": {}
}